:100000000C9463000C948B000C948B000C948B006C
:100010000C948B000C948B000C948B000C94040AB1
:100020000C948B000C948B000C948B000C948B0024
:100030000C948B000C948B000C948B000C948B0014
:100040000C94B80A0C948B000C94860A0C94600AE9
:100050000C948B000C948B000C948B000C948B00F4
:100060000C948B000C948B000000000024002700EF
:100070002A0000000000250028002B0000000008D6
:10008000000201000003040700000000000000005F
:1000900002000000002300260029000404040404D8
:1000A0000404040202020202020303030303030125
:1000B00002040810204080010204081020010204FC
:1000C00008102000020B11241FBECFEFD8E0DEBFC6
:1000D000CDBF22E0AAE9B1E001C01D92AA3FB2075C
:1000E000E1F711E0A0E0B1E0E6E9F5E202C0059039
:1000F0000D92AA39B107D9F710E0C3E6D0E004C0E9
:100100002197FE010E94C810C236D107C9F70E948C
:10011000D70B0C94C9120C9400009B01AC01E09128
:10012000D001F091D10182E08083211581EE380762
:1001300041055105E9F160E079E08DE390E00E942E
:100140006C10215031094109510956954795379551
:100150002795E091CC01F091CD011082E091CE0184
:10016000F091CF0120831092D801E091D401F09159
:10017000D50186E08083E091D201F091D3018081A6
:1001800080618083E091D201F091D3018081886009
:100190008083E091D201F091D301808180688083D7
:1001A000E091D201F091D30180818F7D8083089509
:1001B000E091D001F091D101108220E1CACF96E008
:1001C000899FD0011124A159BD4F90967C936E93C5
:1001D0005F9791E091969C939197E091DC02F0916A
:1001E000DD029091DB02992339F0309751F08111B3
:1001F00008C080918B020994309719F05C968C911D
:10020000FACF0895CF92DF92EF92FF92CF93DF93D0
:10021000B0916402A0E08111AB2F8091650290E063
:10022000880F991FAC014F565F4FC0906A02D09063
:100230006B02E0906C02F0906D0230E020E0FA0179
:10024000C591D491E881B90190E080E0EB23EA13F5
:100250000AC02F5F3F4F6C157D058E059F0578F313
:100260006FEF7FEFCB01DF91CF91FF90EF90DF90A9
:10027000CF900895AF92BF92CF92DF92EF92FF920C
:100280000F931F93CF93DF936C017B018B01040FBE
:10029000151FEB015E01AE18BF08C017D10759F05A
:1002A0006991D601ED91FC910190F081E02DC6019C
:1002B0000995892B79F7C501DF91CF911F910F9196
:1002C000FF90EF90DF90CF90BF90AF900895FC012A
:1002D000538D448D252F30E0842F90E0821B930BAB
:1002E000541710F0CF96089501970895FC01918D51
:1002F000828D981761F0A28DAE0FBF2FB11D5D9654
:100300008C91928D9F5F9F73928F90E008958FEFF5
:100310009FEF0895FC01918D828D981731F0828DA9
:10032000E80FF11D858D90E008958FEF9FEF089500
:10033000FC01918D228D892F90E0805C9F4F821B64
:1003400091098F739927089580EC91E00E9498019C
:1003500021E0892B09F420E0822F089580E090E0CD
:10036000892B29F00E94A40181110C9400000895AA
:10037000FC01A48DA80FB92FB11DA35ABF4F2C911A
:10038000848D90E001968F739927848FA689B78911
:100390002C93A089B1898C91837080648C93938D08
:1003A000848D981306C00288F389E02D80818F7DAB
:1003B00080830895EF92FF920F931F93CF93DF9363
:1003C000EC0181E0888F9B8D8C8D98131AC0E88991
:1003D000F989808185FF15C09FB7F894EE89FF8960
:1003E0006083E889F98980818370806480839FBFFE
:1003F00081E090E0DF91CF911F910F91FF90EF90FE
:100400000895F62E0B8D10E00F5F1F4F0F7311270D
:10041000E02E8C8D8E110CC00FB607FCFACFE88948
:10042000F989808185FFF5CFCE010E94B801F1CF17
:10043000EB8DEC0FFD2FF11DE35AFF4FF0829FB7BC
:10044000F8940B8FEA89FB8980818062CFCFCF93AC
:10045000DF93EC01888D8823B9F0AA89BB89E889EC
:10046000F9898C9185FD03C0808186FD0DC00FB692
:1004700007FCF7CF8C9185FFF2CF808185FFEDCF10
:10048000CE010E94B801E9CFDF91CF91089583306A
:1004900081F028F4813099F08230A9F008958730F6
:1004A000A9F08830C9F08430B1F4809180008F7D4C
:1004B00003C0809180008F7780938000089584B579
:1004C0008F7784BD089584B58F7DFBCF8091B00078
:1004D0008F778093B00008958091B0008F7DF9CF21
:1004E000CF93DF93282F30E0F901E458FF4F849138
:1004F000F901E155FF4FD491F901E556FF4FC49141
:10050000CC23A1F081110E944702EC2FF0E0EE0F06
:10051000FF1FEF56FF4FA591B491EC91ED2381E0C1
:1005200090E009F480E0DF91CF91089580E090E0C1
:10053000FACF862F0C9470021F93CF93DF93282F4E
:1005400030E0F901E458FF4F8491F901E155FF4F84
:10055000D491F901E556FF4FC491CC23A9F0162F91
:1005600081110E944702EC2FF0E0EE0FFF1FEE58C2
:10057000FF4FA591B4918FB7F894EC91111108C079
:10058000D095DE23DC938FBFDF91CF911F9108952B
:10059000DE2BF8CF862F642F0C949C0290910001E3
:1005A00089130BC0E0E9F0E0E4919FEF9093000124
:1005B000E13049F028F0E23061F060E00C949C02F8
:1005C00010926E00FACF90916F009D7F90936F0014
:1005D000F4CF909170009D7F9093700091E0909384
:1005E000B0009091B100987F94609093B100109208
:1005F000B300E3CFCF93DF9390E0FC01E155FF4FD1
:10060000249185569F4FFC0184918823C9F090E086
:10061000880F991FFC01E859FF4FA591B491FC0187
:10062000EE58FF4FC591D49161110DC09FB7F8945A
:100630008C91209582238C938881282328839FBFC7
:10064000DF91CF910895623051F49FB7F8943C91B7
:10065000822F809583238C93E8812E2BEFCF8FB749
:10066000F894EC912E2B2C938FBFEACF862F642F1A
:100670000C94FA023FB7F8948091A9019091AA01D5
:10068000A091AB01B091AC0126B5A89B05C02F3F4E
:1006900019F00196A11DB11D3FBFBA2FA92F982FA8
:1006A0008827BC01CD01620F711D811D911D42E0A3
:1006B000660F771F881F991F4A95D1F708958F926B
:1006C0009F92AF92BF92CF92DF92EF92FF926B0117
:1006D0007C010E943A034B015C01C114D104E10486
:1006E000F104B9F00E943A03681979098A099B0953
:1006F000683E73408105910580F321E0C21AD1085C
:10070000E108F10888EE880E83E0981EA11CB11C58
:10071000E4CFFF90EF90DF90CF90BF90AF909F908D
:100720008F9008952FB7F8946091A5017091A6015C
:100730008091A7019091A8012FBF08950F931F9357
:10074000CF93DF93C82FD62F86E0C89FF0011124E6
:10075000E159FD4F11A2878D90A181309105F1F0F3
:1007600058F082309105F1F1039709F440C0DF9110
:10077000CF911F910F9108956623C9F361E070E056
:100780008C2F0E94DF000E9492036093C702709337
:10079000C8028093C9029093CA02E9CF0E949203D3
:1007A0000091C7021091C8022091C9023091CA027B
:1007B000AB01BC01401B510B620B730B8091D90242
:1007C0009091DA02B0E0A0E084179507A607B7077A
:1007D00048F462E070E08C2FDF91CF911F910F9170
:1007E0000C94DF0063E070E0D111C1CFF4CF70E072
:1007F00060E0F1CF6F927F928F929F92AF92BF9203
:10080000CF92DF92EF92FF920F931F93CF93DF93DC
:1008100081E08093DB020E9492030091CB02109151
:10082000CC022091CD023091CE02AB01BC01401B25
:10083000510B620B730B8091D7029091D802B0E0FC
:10084000A0E084179507A607B70708F014C1C0E019
:100850008091D502C81760F4E091D102F091D202E4
:10086000EC0FF11D62E080810E94FA02CF5FF0CFB1
:10087000712C812C912C540183948091D60278168E
:1008800008F05FC0072D10E0E091D302F091D40290
:10089000E00FF11F61E080810E94FA02E091D30233
:1008A000F091D402E00FF11F60E080810E949C0271
:1008B000D501C401072C04C0880F991FAA1FBB1FB4
:1008C0000A94D2F76C017C01E094F094612C809141
:1008D000D5026816F8F4C62DD0E0E091D102F0916F
:1008E000D202EC0FFD1F80810E9470022496CC0F73
:1008F000DD1FC159DD4F892B41F4888199818C29F5
:100900009D29998388836394E2CF888199818E2180
:100910009F21F7CFE091D302F091D402E00FF11FB5
:1009200061E080810E949C028091D3029091D40268
:10093000080F191F60E0F80180810E94FA02739489
:100940009CCFCFE6D2E0FE018FEF9FEF278D30A145
:10095000232B21F4148E968F858F11A2369622E0D8
:10096000EB3AF20799F7F12C96E0D92E8091D50257
:10097000F81608F050C0E12C0F2D10E0000F111FE9
:1009800009581D4F2091D602E21608F042C0F80126
:10099000608171810E2C02C0769567950A94E2F70A
:1009A000F29E900111242E0D311DEFE6F2E080E061
:1009B000458D568D2417350709F461C08F5F369633
:1009C0008A30B1F760FF23C0EFE6F2E090E080E00C
:1009D000448D411117C0E091CF02F091D002E20F97
:1009E000F31F4081D89EF001D99EF00D1124E159EA
:1009F000FD4F448F368F258F10A2178E61E00E9425
:100A00009E0305C0019636968A30910509F7E39456
:100A1000B9CFF394ABCF10E089A18111182F26969E
:100A2000F2E0CB3ADF07C1F70E9492036093CB025A
:100A30007093CC028093CD029093CE021123D9F013
:100A4000809190028823B9F080918E0290918F025C
:100A5000019789F480918B02DF91CF911F910F91C3
:100A6000FF90EF90DF90CF90BF90AF909F908F90CE
:100A70007F906F9008951092DB0280E0EDCF61705F
:100A8000BECFCF92DF92EF92FF920F931F93CF933F
:100A9000DF93CDB7DEB7C054D1400FB6F894DEBFB8
:100AA0000FBECDBF0E9492030091660210916702B3
:100AB00020916802309169026B017C01C01AD10A51
:100AC000E20AF30A97018601003D1740210531052E
:100AD00090F480916E02C05CDE4F0FB6F894DEBFDA
:100AE0000FBECDBFDF91CF911F910F91FF90EF907F
:100AF000DF90CF90089560936602709367028093B1
:100B00006802909369021092610210926002109242
:100B10005F0210925E0210925D0262E080916202BA
:100B20000E94FA0261E070E080E090E00E945F03C2
:100B300061E0809162020E94FA0260E080916202AC
:100B40000E949C028091630285518230D8F48BE22E
:100B500091E10197F1F762E0809162020E94FA024E
:100B60008BE990E00197F1F7F89480E00E94020190
:100B70006F3F7F4F8F4F9F4F61F410926E027894BA
:100B800080E0A9CF64E170E080E090E00E945F0324
:100B9000E2CF81E00E9402016F3F7F4F8F4F9F4F56
:100BA00061F38E010F5F1F4F6E012FEBC21A2EEF04
:100BB000D20A780180E00E940201F701608371830C
:100BC0008283938381E00E940201F701648375832D
:100BD00086839783F8E0EF0EF11CEC14FD0451F7C7
:100BE000789430E020E0F801C080D180E280F3808A
:100BF0004481558166817781FFEFCF16DF06EF06CE
:100C0000FF0631F04F3F8FEF58076807780719F458
:100C100010926E02B5CFF90183E0F595E7958A95BC
:100C2000E1F7E35AFD4F8081880FC416D506E6062A
:100C3000F70610F180832F5F3F4F085F1F4F283268
:100C4000310589F64091610220915D0280915E023A
:100C5000280F3327331F80915F02280F311D8091A9
:100C60006002820F932F911D99274817190681F66C
:100C700081E080936E022FCF8160DCCF089590E0F9
:100C800080E008958F929F92AF92BF92CF92DF92B1
:100C9000EF92FF920F931F93CF936C018B01809182
:100CA00000018330A1F08F3F09F477C0B801110F24
:100CB000880B990BCF911F910F91FF90EF90DF90D0
:100CC000CF90BF90AF909F908F900C945F03E0E91E
:100CD000F0E0C491C7FDEACF61E083E00E94FA0230
:100CE000CC2319F0C23009F022C1F12CE12C60E0D4
:100CF00072E18AE790E0A70196010E948E104901F7
:100D00005A01DA01C9010197A109B1098F3F910583
:100D1000A105B10509F00CF4EEC060E472E48FE0C7
:100D200090E0A70196010E948E10215031094109DF
:100D30005109C23009F0A0C082E02F3F31054105C2
:100D4000510509F00CF488C160E970ED83E090E092
:100D5000A70196010E948E102150310941095109C5
:100D600083E02F3F31054105510509F00CF474C1B2
:100D700068E478EE81E090E0A70196010E948E1071
:100D800021503109410951092F3F310541055105D4
:100D900011F00CF08FC084E05FC183E0809300010C
:100DA000E0E9F0E0C491CF3F09F480CFC13021F1F8
:100DB00050F0C23009F43EC0C7FD78CF61E083E057
:100DC0000E94FA028FCF14BC15BC84B5826084BD2A
:100DD00085B5816085BDEEE9F0E0E491F0E0EE0FCD
:100DE000FF1FEE58FF4F85919491E2EBF0E0E49104
:100DF000E0939B01C0E070CF1092800010928100C0
:100E00008091810088608093810080918100816061
:100E100080938100EEE9F0E0E491F0E0EE0FFF1F37
:100E2000EE58FF4F85919491E2EBF0E0E491E0936E
:100E30009A0152CF1092B0001092B1008091B00090
:100E400082608093B0008091B10081608093B10096
:100E5000EEE9F0E0E491F0E0EE0FFF1FEE58FF4FF7
:100E6000859194919093AE018093AD01E2EBF0E017
:100E7000E491E093AF0130CF2F3F3105410551059B
:100E800009F00CF452C068E478EE81E090E0A7012C
:100E900096010E948E102150310941095109CC233D
:100EA00009F4AFC02F3F31054105510511F00CF099
:100EB000B0C071CF64E274EF80E090E0A7019601CA
:100EC0000E948E10215031094109510985E02F3FC0
:100ED00031054105510509F008F4BEC062E17AE729
:100EE00080E090E0A70196010E948E102150310908
:100EF000410951099CC09C0181E0C111ADC095B56B
:100F0000987F892B85BD27BD8FEF9FEFDC018093F4
:100F1000A0019093A101A093A201B093A30180919D
:100F20006E00826080936E00C1CE82E0E6CFF12C2D
:100F3000E12C60E072E18AE790E0A70196010E944F
:100F40008E10215031094109510991E021153105D7
:100F500081E0480751056CF068E478EE81E090E0AC
:100F6000A70196010E948E102150310941095109B3
:100F700093E0C13009F076C080918100887F892B91
:100F80008093810030938900209388008FEF9FEF3A
:100F9000DC0180939C0190939D01A0939E01B093EE
:100FA0009F0180916F00826080936F007FCE2093BD
:100FB000B3008FEF9FEFDC018093B0019093B101FC
:100FC000A093B201B093B3018091700082608093CE
:100FD00070006CCE84E02F3F31054105510509F0CA
:100FE00008F48DCF9AE0B594A794979487949A9536
:100FF000D1F7A5019401215031094109510985E03A
:101000007ECF83E02F3F31054105510509F00CF4F7
:1010100076CF62E17AE780E090E0A70196010E9436
:101020008E102150310941095109CC2399F286E0F3
:101030002F3F31054105510579F070F08AE0B594F4
:10104000A794979487948A95D1F7A501940121508C
:1010500031094109510987E09091B100987F892BAE
:101060008093B100C13009F48DCFC23009F49FCF15
:10107000C1111CCE48CF64EF71E08CED93E00E946B
:10108000420668EE73E087E295E00E9442066AEF4E
:1010900070E080E296E00E9442066AEF70E088EC21
:1010A00095E00E94420668EE73E087E295E00E94B8
:1010B000420664EF71E088EB97E00E94420662EE20
:1010C00074E080EE96E00E94420668EE73E088ECE1
:1010D00095E00E94420664EF71E08CED93E00E947F
:1010E000420668EE73E087E295E00E9442066AEFEE
:1010F00070E080E296E00E9442066AEF70E088ECC1
:1011000095E00E94420668EE73E087E994E00E9451
:10111000420664EF71E087E295E00E94420668EEC5
:1011200073E08CED93E00E94420683E00E94CE02C1
:1011300060ED77E080E090E00C945F03FC010190AB
:101140000020E9F73197AF01481B590BBC018EED28
:1011500092E00C943A01CF93DF93EC0160E08E8132
:101160000E949C0261E08E810E949C0260E08E8160
:101170000E949C028BE891E00197F1F7DF91CF91FB
:101180000895CF92DF92EF92FF920F931F93CF9328
:10119000DF936C017C0187E0E80EF11CD0E0C0E039
:1011A000062F10E0B8010C2E02C0759567950A94C1
:1011B000E2F76170F70181917F010E949C02219604
:1011C000C430D10579F7C601DF91CF911F910F91FE
:1011D000FF90EF90DF90CF900C94AB08CF92DF920E
:1011E000EF92FF920F931F93CF93DF93EC01F62EB4
:1011F000642F8C810E949C028D818F3F19F060E0EA
:101200000E949C020F2D10E08F8584FF25C06E0187
:1012100087E0C80ED11CF12CE12CB8010E2C02C0C5
:10122000759567950A94E2F76170F60181916F01F7
:101230000E949C02FFEFEF1AFF0A88E0E816F10413
:1012400061F7CE01DF91CF911F910F91FF90EF9049
:10125000DF90CF900C94AB08B80184E0759567954A
:101260008A95E1F7CE010E94C1086F2DCE01DF9172
:10127000CF911F910F91FF90EF90DF90CF900C9442
:10128000C10840E0682F8EED92E00C94EE0881E0FA
:101290000E9441098BE39FE10197F1F70895CF93F5
:1012A000DF93823029F49091ED0298609093ED02E3
:1012B0008093F1021092F20280E48093F30280E1C5
:1012C0008093F40280E58093F50261E08091E20270
:1012D0000E94FA028091E3028F3F19F061E00E94C0
:1012E000FA0261E08091E4020E94FA02CEEDD2E0BF
:1012F0009E012E5D32408091ED0284FD0BC084E0A2
:1013000090E021962817390744F461E08E810E940D
:10131000FA02EECF88E090E0F4CF8BE39DE00197F6
:10132000F1F760E08091E2020E949C0260E080910F
:10133000E4020E949C028091E3028F3F19F060E07A
:101340000E949C028091ED0284FD34C063E08EED2A
:1013500092E00E94C108CBE4D6E4CE010197F1F7F8
:1013600063E08EED92E00E94C1082197F1F763E0FF
:101370008EED92E00E94C10883E592E00197F1F7BB
:1013800062E08EED92E00E94C1088091ED028062E1
:101390000E94410984E08093EE028CE00E944109A2
:1013A0000E94470982E08093EF0286E0DF91CF91AF
:1013B0000C94410980620E9441098BE496E40197F4
:1013C000F1F78091ED0280620E94410983E592E08D
:1013D0000197F1F78091ED0280620E944109D5CF1B
:1013E000E091F102E23040F4E150F0E0E252FD4FD2
:1013F000848980680C944109E1E0F7CF41E00E94C4
:10140000EE0881E090E008951F920F920FB60F92C0
:1014100011242F933F934F935F936F937F938F93F9
:101420009F93AF93BF93EF93FF938091B0019091FF
:10143000B101A091B201B091B301892B8A2B8B2B02
:10144000D1F19091AF01E091AD01F091AE018081B9
:10145000892780838091B0019091B101A091B20160
:10146000B091B301181619061A061B069CF4809158
:10147000B0019091B101A091B201B091B301019777
:10148000A109B1098093B0019093B101A093B20179
:10149000B093B301FF91EF91BF91AF919F918F9165
:1014A0007F916F915F914F913F912F910F900FBE60
:1014B0000F901F901895809100010E94CE02EACFF4
:1014C0001F920F920FB60F9211242F933F934F93B9
:1014D0005F936F937F938F939F93AF93BF93EF939C
:1014E000FF9380EC91E00E94B801FF91EF91BF91D2
:1014F000AF919F918F917F916F915F914F913F91AC
:101500002F910F900FBE0F901F9018951F920F9262
:101510000FB60F9211242F938F939F93EF93FF9306
:10152000E091D001F091D1018081E091D601F0915C
:10153000D70182FD1BC090818091D9018F5F8F738D
:101540002091DA01821741F0E091D901F0E0E054F6
:10155000FE4F958F8093D901FF91EF919F918F91CD
:101560002F910F900FBE0F901F9018958081F4CF90
:101570001F920F920FB60F9211242F933F938F93C8
:101580009F93AF93BF938091A5019091A601A091E5
:10159000A701B091A8013091A40123E0230F2D37BA
:1015A00058F50196A11DB11D2093A4018093A501BA
:1015B0009093A601A093A701B093A8018091A901DF
:1015C0009091AA01A091AB01B091AC010196A11D2F
:1015D000B11D8093A9019093AA01A093AB01B09390
:1015E000AC01BF91AF919F918F913F912F910F903F
:1015F0000FBE0F901F90189526E8230F0296A11D8D
:10160000B11DD2CF1092C3011092C20188EE93E0B7
:10161000A0E0B0E08093C4019093C501A093C601FF
:10162000B093C70184E291E09093C1018093C0011F
:1016300085EC90E09093CD018093CC0184EC90E018
:101640009093CF018093CE0180EC90E09093D101F4
:101650008093D00181EC90E09093D3018093D201EC
:1016600082EC90E09093D5018093D40186EC90E0D9
:101670009093D7018093D6011092D9011092DA018C
:101680001092DB011092DC011092E1021092E00254
:1016900080E491E09093DF028093DE0282E0809309
:1016A000E2028FEF8093E3021092E4028FE08093D6
:1016B000E50280E18093E6028AE08093E70289E018
:1016C0008093E8021092E9021092EA021092EB0273
:1016D0001092EC021092ED0281E00E944F091092EC
:1016E000710210927502109274021092760286E3D3
:1016F00091E09093700280936F02EBE8F2E0108229
:10170000148213821582369682E0E73CF807B9F717
:101710008AE091E09093D2028093D10287E091E039
:101720009093D4028093D30284E08093D50283E027
:101730008093D6028EE091E09093D0028093CF0206
:101740008AE090E09093D8028093D70284EF91E0F2
:101750009093DA028093D9021092DD021092DC029B
:101760001092CB021092CC021092CD021092CE02B7
:101770001092DB0282E1809362028BE0809363022D
:10178000E1ECF0E0E491E0936402EDEAF0E0E49152
:10179000E093650280E89EE3A0E0B0E080936A02F7
:1017A00090936B02A0936C02B0936D020895CF9357
:1017B000DF9300D0CDB7DEB7789484B5826084BD66
:1017C00084B5816084BD85B5826085BD85B5816045
:1017D00085BD80916E00816080936E0010928100C3
:1017E000809181008260809381008091810081607E
:1017F000809381008091800081608093800080913F
:10180000B10084608093B1008091B00081608093CA
:10181000B00080917A00846080937A0080917A0091
:10182000826080937A0080917A00816080937A0050
:1018300080917A00806880937A001092C10060E005
:1018400072EC81E090E00E948D0060E875E280E03B
:1018500090E00E948D0062E0809162020E94FA0294
:101860000E949203605D774081099109609366024E
:1018700070936702809368029093690282E00E94ED
:101880004F0961E08DE00E94FA0260E083E10E946E
:10189000FA0260E875E280E090E00E948D00CE01DF
:1018A00001965C017AE0472E512C60E0662E60E0E4
:1018B000762E50E2352E0E94FA038093BF0183E119
:1018C0000E9470024C010E944105882351F08091D2
:1018D00063028B3030F08D3048F08551823008F44F
:1018E000F9C060E070E080EC9FE71EC010915F02DD
:1018F000612F70E090E080E00E94500E6B017C014F
:10190000609160026F7070E090E080E00E94520E83
:101910002DEC3CEC4CEC5DE30E94B10EA70196016E
:101920000E94B60F17FD90580E9422107093BE01BE
:101930006093BD010E94410583E480937C00809107
:101940007A00806480937A0080917A0086FDFCCFD3
:101950008091780040917900542F482F20E137E2A0
:10196000DA010E94AD106B017C01A0E0B4E0A41B81
:10197000B50B26E930E00E94AD109B01AC01C70118
:10198000B6010E948E10CA01B9010E94520E26E6CD
:1019900036E646E050E40E94B50F0E942210709394
:1019A000BC016093BB018091BF018A3219F0833280
:1019B00009F0B0C088E491E00E949E08222423949C
:1019C00080910601882309F4A0C01092BA010E94F8
:1019D000FA038093BF01882389F0E091B901F0E018
:1019E000EC54FE4F80830E94F00984EB91E00E944A
:1019F0009E088091B9018F5F8093B90164EF71E017
:101A000080E090E00E945F038091B9018430C1F6CC
:101A100034EBC32E31E0D32EF60181916F0189831F
:101A20001A82F50101900020E9F7BF016A197B09CC
:101A300090E080E00E94F3118C0160E070E0CB0147
:101A40000115110549F0F8011082B501C8010E9485
:101A5000C212C8010E940F0E7B010115110519F079
:101A6000C8010E946A11C701880F991F8E0D9F1D22
:101A70000796F6013197B2010E945810805D80836D
:101A800088EB91E08C159D0539F661E071E084EBFF
:101A900091E00E94B912892B99F52092BA010E9417
:101AA000470981E591E00E949E081092B9013092A9
:101AB000B4013092B5013092B6013092B701109264
:101AC000060164EF71E080E090E00E945F030E94F5
:101AD000470976CF10915F02612F70E0762F66275D
:101AE00066277F7780916002682B90E080E00E94FB
:101AF000500E2DEC3CEC4CEC5DE30E94B10E12CF8D
:101B00000E94470980E691E0CECF81E080930601F4
:101B10000E9447098091BD019091BE01429794F4C3
:101B200081E791E00E949E080E94F0098DE791E014
:101B30000E949E0868EE73E080E090E00E945F03E0
:101B40000E9447098091BD019091BE014A97489734
:101B500090F486E891E00E949E080E94F0098DE7CB
:101B600091E00E949E0868EE73E080E090E00E94A1
:101B70005F030E9447098091BD019091BE01C29709
:101B800074F082E991E00E949E080E943B0864E69E
:101B900070E080E090E00E945F030E9447098A9411
:101BA000892891F48091BA01882371F082E991E04B
:101BB0000E949E080E943B0864E670E080E090E08E
:101BC0000E945F030E9447096091BB017091BC01B4
:101BD000072E000C880B990B0E94520E23E333E36F
:101BE0004CEC52E40E944B0E61E087FF13C08DE085
:101BF0000E94FA0261E08DE00E949C02611471046F
:101C000009F459CE0E94A401882309F452CE0E94FF
:101C100000004BCE8DE00E94FA0260E0ECCF1F93F3
:101C2000FC0199278827BC01E89411911032E9F34F
:101C3000193010F01E30C8F31B3251F01D3249F438
:101C4000689406C00E94360E610F711D811D911DA2
:101C5000119110531A30B0F33EF490958095709521
:101C600061957F4F8F4F9F4F1F910895592F482F98
:101C7000372F262F660F771F881F991F660F771F34
:101C8000881F991F620F731F841F951F660F771F90
:101C9000881F991F08950E948D0E08F481E0089511
:101CA000E89409C097FB3EF49095809570956195F6
:101CB0007F4F8F4F9F4F9923A9F0F92F96E9BB27AC
:101CC0009395F695879577956795B795F111F8CF28
:101CD000FAF4BB0F11F460FF1BC06F5F7F4F8F4F93
:101CE0009F4F16C0882311F096E911C0772321F089
:101CF0009EE8872F762F05C0662371F096E8862F21
:101D000070E060E02AF09A95660F771F881FDAF777
:101D1000880F9695879597F90895990F0008550FA4
:101D2000AA0BE0E8FEEF16161706E807F907C0F061
:101D300012161306E407F50798F0621B730B840B69
:101D4000950B39F40A2661F0232B242B252B21F443
:101D500008950A2609F4A140A6958FEF811D811DE3
:101D600008950E94C40E0C94350F0E94270F38F07E
:101D70000E942E0F20F0952311F00C941E0F0C944E
:101D8000240F11240C94690F0E94460F70F3959F45
:101D9000C1F3950F50E0551F629FF001729FBB2762
:101DA000F00DB11D639FAA27F00DB11DAA1F649FFE
:101DB0006627B00DA11D661F829F2227B00DA11DB1
:101DC000621F739FB00DA11D621F839FA00D611D37
:101DD000221F749F3327A00D611D231F849F600D58
:101DE000211D822F762F6A2F11249F5750409AF081
:101DF000F1F088234AF0EE0FFF1FBB1F661F771F0D
:101E0000881F91505040A9F79E3F510580F00C94D7
:101E10001E0F0C94690F5F3FE4F3983ED4F3869550
:101E200077956795B795F795E7959F5FC1F7FE2B77
:101E3000880F911D9695879597F9089597F99F6753
:101E400080E870E060E008959FEF80EC0895002442
:101E50000A941616170618060906089500240A940F
:101E600012161306140605060895092E0394000C95
:101E700011F4882352F0BB0F40F4BF2B11F460FF24
:101E800004C06F5F7F4F8F4F9F4F089557FD90584D
:101E9000440F551F59F05F3F71F04795880F97FB2E
:101EA000991F61F09F3F79F08795089512161306E8
:101EB0001406551FF2CF4695F1DF08C01616170617
:101EC0001806991FF1CF869571056105089408954C
:101ED000E894BB2766277727CB0197F908952F92BF
:101EE0003F924F925F926F927F928F929F92AF92AA
:101EF000BF92CF92DF92EF92FF920F931F93CF93F7
:101F0000DF93CDB7DEB7CA1BDB0B0FB6F894DEBF8D
:101F10000FBECDBF09942A88398848885F846E84B3
:101F20007D848C849B84AA84B984C884DF80EE80FD
:101F3000FD800C811B81AA81B981CE0FD11D0FB606
:101F4000F894DEBF0FBECDBFED010895A29FB00192
:101F5000B39FC001A39F700D811D1124911DB29FDD
:101F6000700D811D1124911D08955058BB27AA277B
:101F70000E94CD0F0C94350F0E94270F38F00E945D
:101F80002E0F20F039F49F3F19F426F40C94240FFF
:101F90000EF4E095E7FB0C941E0FE92F0E94460F0C
:101FA00058F3BA17620773078407950720F079F48E
:101FB000A6F50C94680F0EF4E0950B2EBA2FA02D09
:101FC0000B01B90190010C01CA01A0011124FF27E6
:101FD000591B99F0593F50F4503E68F11A16F040E1
:101FE000A22F232F342F4427585FF3CF46953795E0
:101FF0002795A795F0405395C9F77EF41F16BA0BA5
:10200000620B730B840BBAF09150A1F0FF0FBB1F52
:10201000661F771F881FC2F70EC0BA0F621F731F9B
:10202000841F48F4879577956795B795F7959E3FF8
:1020300008F0B0CF9395880F08F09927EE0F979589
:10204000879508950E9429106894B1110C94690F26
:1020500008950E944E0F88F09F5798F0B92F992746
:10206000B751B0F0E1F0660F771F881F991F1AF083
:10207000BA95C9F714C0B13091F00E94680FB1E071
:1020800008950C94680F672F782F8827B85F39F070
:10209000B93FCCF3869577956795B395D9F73EF41C
:1020A00090958095709561957F4F8F4F9F4F0895C4
:1020B00097FB072E16F4009407D077FD09D00E94F5
:1020C000B41007FC05D03EF4909581959F4F08957C
:1020D000709561957F4F0895A1E21A2EAA1BBB1B34
:1020E000FD010DC0AA1FBB1FEE1FFF1FA217B307E4
:1020F000E407F50720F0A21BB30BE40BF50B661FFA
:10210000771F881F991F1A9469F7609570958095BD
:1021100090959B01AC01BD01CF010895052E97FB61
:102120001EF400940E94A51057FD07D00E946C1069
:1021300007FC03D04EF40C94A510509540953095B3
:1021400021953F4F4F4F5F4F089590958095709523
:1021500061957F4F8F4F9F4F08950E94A60FB7FF45
:102160000895821B930B0895AA1BBB1B51E107C066
:10217000AA1FBB1FA617B70710F0A61BB70B881F17
:10218000991F5A95A9F780959095BC01CD010895A6
:10219000EE0FFF1F0590F491E02D09940F931F930C
:1021A000CF93DF938230910510F482E090E0E091CC
:1021B000F802F091F90230E020E0B0E0A0E03097C2
:1021C00099F42115310509F44AC0281B390B243034
:1021D0003105D8F58A819B816115710589F1FB0173
:1021E00093838283FE0111C040815181028113815A
:1021F00048175907E0F04817590799F4109761F00C
:1022000012960C93129713961C933296CF01DF917E
:10221000CF911F910F9108950093F8021093F90246
:10222000F4CF2115310551F04217530738F0A901B9
:10223000DB019A01BD01DF01F801C1CFEF01F9CF48
:102240009093F9028093F802CDCFFE01E20FF31FC5
:10225000819391932250310939832883D7CF2091DC
:10226000F6023091F702232B41F420911C013091AA
:102270001D013093F7022093F60220911A0130914C
:102280001B012115310541F42DB73EB740911E01C8
:1022900050911F01241B350BE091F602F091F702DB
:1022A000E217F307A0F42E1B3F0B2817390778F02D
:1022B000AC014E5F5F4F2417350748F04E0F5F1F8C
:1022C0005093F7024093F602819391939FCFF0E0F1
:1022D000E0E09CCFCF93DF930097E9F0FC013297C9
:1022E00013821282A091F802B091F902ED0130E060
:1022F00020E01097A1F420813181820F931F20915B
:10230000F6023091F7022817390709F061C0F093FF
:10231000F702E093F602DF91CF910895EA01CE171C
:10232000DF07E8F54A815B819E0141155105B1F750
:10233000E901FB83EA8349915991C40FD51FEC173A
:10234000FD0761F4808191810296840F951FE90158
:1023500099838883828193819B838A83F0E0E0E084
:1023600012968D919C9113970097B9F52D913C9100
:102370001197CD010296820F931F2091F6023091A2
:10238000F7022817390739F6309751F51092F902FC
:102390001092F802B093F702A093F602BCCFD38359
:1023A000C28340815181840F951FC817D90761F4FA
:1023B0004E5F5F4F88819981480F591F5183408339
:1023C0008A819B81938382832115310509F0B0CFE7
:1023D000F093F902E093F8029ECFFD01DC01C0CF3B
:1023E00013821282D7CFB0E0A0E0E9EFF1E10C94C4
:1023F000710F8C01009751F4CB010E94CE108C011B
:10240000C801CDB7DEB7E0E10C948D0FFC01E60FFB
:10241000F71F9C0122503109E217F30708F49DC011
:10242000D901CD91DC911197C617D70798F0C53027
:10243000D10530F3CE0104978617970708F3C61B22
:10244000D70B2297C193D1936D937C93CF010E94B8
:102450006A11D6CF5B01AC1ABD0A4C018C0E9D1ED1
:10246000A091F802B091F902512C412CF12CE12CF1
:10247000109731F58091F6029091F7028815990531
:1024800009F05CC04616570608F058C080911A0142
:1024900090911B01009741F48DB79EB740911E01AA
:1024A00050911F01841B950BE817F90708F055C0E0
:1024B000F093F702E093F602F90171836083A0CFF5
:1024C0008D919C91119712966C90129713967C9017
:1024D0001397A815B90559F56C0142E0C40ED11C3B
:1024E000CA14DB0420F1AC014A195B09DA01129627
:1024F000159780F06282738251834083D9016D9376
:102500007C93E114F10471F0D7011396FC93EE93E0
:10251000129776CF22968C0F9D1FF90191838083AD
:10252000F301EFCFF093F902E093F80269CF481678
:10253000590608F42C017D01D3019ACFCB010E94EA
:10254000CE107C01009749F0AE01B8010E94B01294
:10255000C8010E946A11870153CF10E000E050CFFC
:10256000FB01DC0102C001900D9241505040D8F7B0
:102570000895FB01DC018D91019080190110D9F3C0
:10258000990B0895FB01DC0101900D920020E1F709
:062590000895F894FFCF4E
:10259600FF3334353600010605040C0B08073132CB
:1025A600333435363738392A30230000FA028000B2
:1025B60000000000DA013A0167012702980176015E
:1025C6008A01000000003603CA02990200000000DA
:1025D600FE093A013F063E0650617373776F7264D7
:1025E60000436C61766520436F72726563746100A7
:1025F600436C61766520496E636F727265637461C0
:102606000043616C6566616363696F6E0041637464
:1026160069766164610056656E74696C6163696FA1
:0A2626006E00416C61726D610000EE
:00000001FF
